{
  "_format": "hh-sol-artifact-1",
  "contractName": "RootCid",
  "sourceName": "contracts/rootCid.sol",
  "abi": [
    {
      "anonymous": false,
      "inputs": [
        {
          "indexed": true,
          "internalType": "address",
          "name": "previousOwner",
          "type": "address"
        },
        {
          "indexed": true,
          "internalType": "address",
          "name": "newOwner",
          "type": "address"
        }
      ],
      "name": "OwnershipTransferred",
      "type": "event"
    },
    {
      "anonymous": false,
      "inputs": [
        {
          "indexed": false,
          "internalType": "string",
          "name": "cid",
          "type": "string"
        }
      ],
      "name": "updatedCID",
      "type": "event"
    },
    {
      "inputs": [],
      "name": "cid",
      "outputs": [
        {
          "internalType": "string",
          "name": "",
          "type": "string"
        }
      ],
      "stateMutability": "view",
      "type": "function"
    },
    {
      "inputs": [],
      "name": "getCID",
      "outputs": [
        {
          "internalType": "string",
          "name": "",
          "type": "string"
        }
      ],
      "stateMutability": "view",
      "type": "function"
    },
    {
      "inputs": [],
      "name": "owner",
      "outputs": [
        {
          "internalType": "address",
          "name": "",
          "type": "address"
        }
      ],
      "stateMutability": "view",
      "type": "function"
    },
    {
      "inputs": [],
      "name": "renounceOwnership",
      "outputs": [],
      "stateMutability": "nonpayable",
      "type": "function"
    },
    {
      "inputs": [
        {
          "internalType": "address",
          "name": "newOwner",
          "type": "address"
        }
      ],
      "name": "transferOwnership",
      "outputs": [],
      "stateMutability": "nonpayable",
      "type": "function"
    },
    {
      "inputs": [
        {
          "internalType": "string",
          "name": "_cid",
          "type": "string"
        }
      ],
      "name": "updateCID",
      "outputs": [],
      "stateMutability": "nonpayable",
      "type": "function"
    }
  ],
  "bytecode": "0x608060405234801561001057600080fd5b5061002d61002261003260201b60201c565b61003a60201b60201c565b6100fe565b600033905090565b60008060009054906101000a900473ffffffffffffffffffffffffffffffffffffffff169050816000806101000a81548173ffffffffffffffffffffffffffffffffffffffff021916908373ffffffffffffffffffffffffffffffffffffffff1602179055508173ffffffffffffffffffffffffffffffffffffffff168173ffffffffffffffffffffffffffffffffffffffff167f8be0079c531659141344cd1fd0a4f28419497f9722a3daafe3b4186f6b6457e060405160405180910390a35050565b610c3b8061010d6000396000f3fe608060405234801561001057600080fd5b50600436106100625760003560e01c806302790e341461006757806307cce94614610085578063715018a6146100a15780638da5cb5b146100ab578063aa3ec0a9146100c9578063f2fde38b146100e7575b600080fd5b61006f610103565b60405161007c9190610510565b60405180910390f35b61009f600480360381019061009a919061067b565b610195565b005b6100a96101e8565b005b6100b36101fc565b6040516100c09190610705565b60405180910390f35b6100d1610225565b6040516100de9190610510565b60405180910390f35b61010160048036038101906100fc919061074c565b6102b3565b005b606060018054610112906107a8565b80601f016020809104026020016040519081016040528092919081815260200182805461013e906107a8565b801561018b5780601f106101605761010080835404028352916020019161018b565b820191906000526020600020905b81548152906001019060200180831161016e57829003601f168201915b5050505050905090565b61019d610336565b80600190816101ac919061098f565b507fab4eaba6d27b991fddec0423b47e3aeafe4f24227c318b5f9d64a435cb24248e60016040516101dd9190610ae5565b60405180910390a150565b6101f0610336565b6101fa60006103b4565b565b60008060009054906101000a900473ffffffffffffffffffffffffffffffffffffffff16905090565b60018054610232906107a8565b80601f016020809104026020016040519081016040528092919081815260200182805461025e906107a8565b80156102ab5780601f10610280576101008083540402835291602001916102ab565b820191906000526020600020905b81548152906001019060200180831161028e57829003601f168201915b505050505081565b6102bb610336565b600073ffffffffffffffffffffffffffffffffffffffff168173ffffffffffffffffffffffffffffffffffffffff160361032a576040517f08c379a000000000000000000000000000000000000000000000000000000000815260040161032190610b79565b60405180910390fd5b610333816103b4565b50565b61033e610478565b73ffffffffffffffffffffffffffffffffffffffff1661035c6101fc565b73ffffffffffffffffffffffffffffffffffffffff16146103b2576040517f08c379a00000000000000000000000000000000000000000000000000000000081526004016103a990610be5565b60405180910390fd5b565b60008060009054906101000a900473ffffffffffffffffffffffffffffffffffffffff169050816000806101000a81548173ffffffffffffffffffffffffffffffffffffffff021916908373ffffffffffffffffffffffffffffffffffffffff1602179055508173ffffffffffffffffffffffffffffffffffffffff168173ffffffffffffffffffffffffffffffffffffffff167f8be0079c531659141344cd1fd0a4f28419497f9722a3daafe3b4186f6b6457e060405160405180910390a35050565b600033905090565b600081519050919050565b600082825260208201905092915050565b60005b838110156104ba57808201518184015260208101905061049f565b60008484015250505050565b6000601f19601f8301169050919050565b60006104e282610480565b6104ec818561048b565b93506104fc81856020860161049c565b610505816104c6565b840191505092915050565b6000602082019050818103600083015261052a81846104d7565b905092915050565b6000604051905090565b600080fd5b600080fd5b600080fd5b600080fd5b7f4e487b7100000000000000000000000000000000000000000000000000000000600052604160045260246000fd5b610588826104c6565b810181811067ffffffffffffffff821117156105a7576105a6610550565b5b80604052505050565b60006105ba610532565b90506105c6828261057f565b919050565b600067ffffffffffffffff8211156105e6576105e5610550565b5b6105ef826104c6565b9050602081019050919050565b82818337600083830152505050565b600061061e610619846105cb565b6105b0565b90508281526020810184848401111561063a5761063961054b565b5b6106458482856105fc565b509392505050565b600082601f83011261066257610661610546565b5b813561067284826020860161060b565b91505092915050565b6000602082840312156106915761069061053c565b5b600082013567ffffffffffffffff8111156106af576106ae610541565b5b6106bb8482850161064d565b91505092915050565b600073ffffffffffffffffffffffffffffffffffffffff82169050919050565b60006106ef826106c4565b9050919050565b6106ff816106e4565b82525050565b600060208201905061071a60008301846106f6565b92915050565b610729816106e4565b811461073457600080fd5b50565b60008135905061074681610720565b92915050565b6000602082840312156107625761076161053c565b5b600061077084828501610737565b91505092915050565b7f4e487b7100000000000000000000000000000000000000000000000000000000600052602260045260246000fd5b600060028204905060018216806107c057607f821691505b6020821081036107d3576107d2610779565b5b50919050565b60008190508160005260206000209050919050565b60006020601f8301049050919050565b600082821b905092915050565b60006008830261083b7fffffffffffffffffffffffffffffffffffffffffffffffffffffffffffffffff826107fe565b61084586836107fe565b95508019841693508086168417925050509392505050565b6000819050919050565b6000819050919050565b600061088c6108876108828461085d565b610867565b61085d565b9050919050565b6000819050919050565b6108a683610871565b6108ba6108b282610893565b84845461080b565b825550505050565b600090565b6108cf6108c2565b6108da81848461089d565b505050565b5b818110156108fe576108f36000826108c7565b6001810190506108e0565b5050565b601f82111561094357610914816107d9565b61091d846107ee565b8101602085101561092c578190505b610940610938856107ee565b8301826108df565b50505b505050565b600082821c905092915050565b600061096660001984600802610948565b1980831691505092915050565b600061097f8383610955565b9150826002028217905092915050565b61099882610480565b67ffffffffffffffff8111156109b1576109b0610550565b5b6109bb82546107a8565b6109c6828285610902565b600060209050601f8311600181146109f957600084156109e7578287015190505b6109f18582610973565b865550610a59565b601f198416610a07866107d9565b60005b82811015610a2f57848901518255600182019150602085019450602081019050610a0a565b86831015610a4c5784890151610a48601f891682610955565b8355505b6001600288020188555050505b505050505050565b60008154610a6e816107a8565b610a78818661048b565b94506001821660008114610a935760018114610aa957610adc565b60ff198316865281151560200286019350610adc565b610ab2856107d9565b60005b83811015610ad457815481890152600182019150602081019050610ab5565b808801955050505b50505092915050565b60006020820190508181036000830152610aff8184610a61565b905092915050565b7f4f776e61626c653a206e6577206f776e657220697320746865207a65726f206160008201527f6464726573730000000000000000000000000000000000000000000000000000602082015250565b6000610b6360268361048b565b9150610b6e82610b07565b604082019050919050565b60006020820190508181036000830152610b9281610b56565b9050919050565b7f4f776e61626c653a2063616c6c6572206973206e6f7420746865206f776e6572600082015250565b6000610bcf60208361048b565b9150610bda82610b99565b602082019050919050565b60006020820190508181036000830152610bfe81610bc2565b905091905056fea2646970667358221220e4b47e2203fb113912474bce665aaf8000c8973276c5b39ea0f8cc64926b423064736f6c63430008130033",
  "linkReferences": {},
  "deployedLinkReferences": {}
}